:030000000221904A
:0C219000787FE4F6D8FD7581070221D7A6
:10000E00004CCC002E04D6FA000A04BCFA041ABC2A
:10001E0000FA04BCFA040AFAFA04D6FAFA04D6FA7A
:10002E00FA041ABC000AFAFA70F004BC70F0044428
:10003E0070F004EC70F0046470F0044C70F004F492
:10004E0070F004CA70F004E4BC04D6FC70F004E056
:10005E0070F004EA760AFAFAF0C8BCFAF00AFAFA74
:10006E00007EE07AFAEAF44400F4444412141320B9
:10007E00161813181C11111203033E2DDA783EC602
:10008E00DE9F3F2AD12A3F82BED93FBC3783400232
:10009E009CDD4030E932406A84EA4096C94740BA56
:1000AE0062C140DE73C24101CFD34115BABE412BAE
:1000BE00459841485AC5417DEC12418BB53441916A
:1000CE00C6F84194DFC9432DA89C431B6E33430DE4
:1000DE003CE7430219E242F2ACA142E4E4F642DA12
:1000EE0012DE42D17C7742CA552542C3C7DE42BDDD
:1000FE0057E342B704AE42B109D242AB8CC242A61C
:10010E00F98D42A511DC42A888C942ADC40242B89D
:10011E005B973E9979F2405A4814410F09CF4183BB
:10012E001CED41CAE0E4420E0BE5423A4C624269D4
:10013E00DCC8428F2DD942AE111242D38EC642FF79
:10014E008629431805BA4331B5E0434A35A84355CD
:10015E00DC05433A66AD430CCE294231B9453E200B
:10016E0079663EB751203F1D29853F6F62DC3FAA5D
:10017E00D3893FEA128E401BE1D1404AFB86408173
:10018E004E5B40A0B90340C282A740E5FEB74105D1
:10019E00AE1D4119B777412F96C041487F66416B1E
:1001AE00017A4192A5C841A08A8741A67A0F41A83B
:1001BE0005694330A7F7431CE175430D6A004301FF
:1001CE00286542EEBA8B42DEF55642D22B8442C7E8
:1001DE00B38142BEF34842B7547E42B0584A42A958
:1001EE00B77642A365EC429D76C44297FFDF4293F9
:1001FE001099428F3896428DD6DB4290CF48429767
:10020E0016B8429E80A13E9981CC405A75A7410FE7
:10021E007B8241840FF641CD737E4210E2E3423F72
:10022E00BA1C4272CA7142952E4E42B3FF4542D756
:10023E00178D42FF629743166672432F31914349E1
:10024E0072C14364885E437CA41743833CD8436BDE
:10025E004DD0432C598042BEF6723F7412D43F9259
:10026E00AEB23FAEE84B3FCF26AA3FF3D096400E3C
:10027E00EFB440262D9040400ED8405CFC92407D5D
:10028E0067FA4090D7C340A513EF40BB93F140D41B
:10029E00ACCE40F0E2464108AEB9411C752A413B56
:1002AE002C2941590069415D1FDD436ADC574356D5
:1002BE00FB964345B27D433695C243294D03431DFC
:1002CE00A1CC43134F574309FA144301A11C42F426
:1002DE005E9E42E7123F42DB29AF42D07A5142C6C0
:1002EE00E31642BE541F42B6D24D42B0805B42ABC3
:1002FE00CC6542ABDC0A42AEA22E435792D3436A80
:10030E008847437E58B14389807943944128439F5F
:10031E005EE643AAE66343B704ED43C38C0243D0C3
:10032E00672243DD91E643EB0C7943F8D4FC44039A
:10033E0071FA440A8EA144119FA444186045441ECC
:10034E0021A0441DF12544194FD1C0B72FDCC0B0F8
:10035E00BBB0C0A90969C09FF857C09553B0C088FB
:10036E00EC67C07524FCC053DFCFC02D4E48C000D3
:10037E007366BF980F1CBE5D66563F8A272D403BA5
:10038E00EDA440A5CFB940E47E09411AE27D413E7D
:10039E00B322416F551A4197713041D0D1AD41ED25
:1003AE00197C4202CD3D420E4BF242196518422491
:1003BE001888422E304942377E404240026B4247F7
:1003CE00DD10424F454C42567917425B4637427616
:1003DE00E8F9425D14FD424786D542355F664225F7
:1003EE00EEC14218B3ED420D579D42038DB341F657
:1003FE00355141E7AC2241DB3AAC41D0A41341C8A0
:10040E0054FC41C22C9B41C1868441C690A041C779
:10041E00A9FA41C3499541BFB5B441BD19B041BB1D
:10042E00C85041BDF68141C0E00C41C41E2241C7F7
:10043E00869241CB0B6B41CEB72D41D2A3F641D65E
:10044E00EB6441DB98CF41E0A4BE41E5EE1841EAF2
:10045E0047584323C2E542FD9A1A42C2157D429285
:10046E0023EE42571B8B421961EA41D18FE541863B
:10047E009902411D5BA3409D60803FE669C83E6DB9
:10048E00A9363C654F7B3F5A54243F73F101C0138C
:10049E00E057C0499D8F4009471C40EF726F4145A0
:1004AE00F823417674ED4104C3D4C01F3C75C17B63
:1004BE00DA70C1F72858C23F0C5EC2852B52C2AF0C
:1004CE00E4CCC2E0F636C30C8B69C32C1041C34E8C
:1004DE004E0DC36B64E2BF2161763EA333583F8F4E
:1004EE0044CB3FF8EDE34034951F40716FAC409A1A
:1004FE0031BF40BF3C9F40E8990C410B7A8F41259C
:10050E00821C4142EB98416480364185D46B419DFB
:10051E00CF3041BFA92B41FDC839420F4A84421C3E
:10052E00A1944228763742331B8A423BF0F0423E7A
:10053E000D14422066B2421A23F34214E808420E0A
:10054E00F23842094DF7420415D441FEA21541F688
:10055E0002D541EE45A641E75AC441E1340C41DBD8
:10056E00C1A441D6F6B741D2D08141CF5A2C41CC4D
:10057E00B75A41CBCE8541CDA32941D0336D41D35E
:10058E003D4541D69B7041DA689741DD6CEC3F7872
:10059E007162BC03C2983EDDF34440066D9F409AE3
:1005AE00FDB241086CAD41506BD44191C64E41C075
:1005BE000C9841F25B56421400A54230307C424DFD
:1005CE00664D426B0C0F428403FB42910895429696
:1005DE0045684287C63B4261A7AC42262DBB41BE51
:1005EE008D6840233854C17133C6C10865D6C10227
:1005FE00A115C0F7930BC0E78B0CC0D4D823C0BF96
:10060E0042A9C0A693A3C08A6EE5C054E8AEC00C42
:10061E0029ACBF69E4C83F12C4D6401219FD40830D
:10062E00ECF840C4618F41061168412E9E5E415D1B
:10063E0026094189B04241A9D94A41D0EA0A42016C
:10064E00CB93423CD0C8425A662F427409C242161E
:10065E00C34242086DD141F8C27241E44EF841D214
:10066E00CC5841C3AB9041B681CB41AAFC2741A0E7
:10067E00E28E4198017541902463418924AA4183F9
:10068E007EC0417C2E51417241AA41694E1A416190
:10069E005A6D415A65C5415468D2414F5640414B3F
:1006AE001F0C4147C2DB4145DCB0414819AA414A03
:1006BE00B0114304B40D42CC5149429B23314267E1
:1006CE002C7E4227D66441EB133B419C6B8041400C
:1006DE00ECEA40D32739403A336E3F426062BD1B8D
:1006EE0096443EC0854A3FF5B021408F4DF040FD07
:1006FE00407141414E9C4186A3DD41B00F1D41DB4F
:10070E00C10142044719421A3EB442296F36420FC4
:10071E000A2241D79221C0EFAE14C0DFAE14C0CC76
:10072E007AE1C0B2E147C092E147C0528F5CBFE5AB
:10073E001EB73E9EB85540470A3E40D9EB8541A9AB
:10074E00AE1541E0147B4201A3D7421070A4421FA4
:10075E00A3D74232D70A424A0A3D425A70A4426B8C
:10076E00A3D7427ED70A4226FE13420E0A4A41F909
:10077E008D9341DFFD6141CA986341B9777941ACF0
:10078E00A65841A215BD4199931F4193B44741907C
:10079E0069F141903FDE418C46CF41874103418252
:1007AE000D57417B59B04178EAB44180FFB5418580
:1007BE00BED241894F2A4301AE4542A5EC034253B6
:1007CE001BD742019164418BBAC440F4F80A401819
:1007DE00CB0E3D4CD9113EB9D7674029EA1140AB3B
:1007EE00ADCF40C50F4F41A05CDA42217740427F2A
:1007FE00649142AB630742B861BB427E2EC841F999
:10080E002FDC409E7543C0ACF5DAC0A58572C09C46
:10081E00E62BC092F3DFC08799B7C07587D0C0585A
:10082E006933C03767AFC012559EBFD17051BF68D4
:10083E0043CFBDC1E1AA3F62F0D03FF174AB403E61
:10084E0028FB4085C61740B111AF40E11640410A62
:10085E00D93A4127AA0941476D4A416AAE64418897
:10086E00951C419D6B7641A6F37742716C3F425BBE
:10087E005730424861174237FF7D4229AC6B421D0B
:10088E000C704211EABE42081ADB41FECB8941EFE1
:10089E0044D941E1825441D51A5C41CAA3F541C005
:1008AE00D14D41B7995741AF4EB741A7E91741A175
:1008BE0042F2419B36FD4195AF9C4190A956418C29
:1008CE00234141880804418435FE4181EBB6430A39
:1008DE00452142D8DE6B42A7D56D427F5BD3423DA8
:1008EE0096114208181341BACB2D4170E913410DF0
:1008FE0021F2408C53283FC956AE3E2C15463D3C46
:10090E00ED773F91191B4053B17F40CC75C7412401
:10091E001EAD416DBF7041A16C4E41D16B8F420334
:10092E000B63421F3F9D423D5FF1425DFE7B427471
:10093E0033583E9CC2AB3F2F51A13F92E8C43FDAE1
:10094E00DCE84018FAC8404D7FF340869C9840ADD5
:10095E009BB140DE9D9A410FECD7414668B9418666
:10096E00B2BA419D05B641B08F0741C2847C41D3D6
:10097E0041E141E2D4C641F11FDE41FE0538420499
:10098E00BB9D4209BEF7420E18F54211DA3E4215E2
:10099E0014594217D804421A33DD421C3497421DB3
:1009AE00E620421E004B42C48B7442AFD17A429E67
:1009BE00F32742911DB84285B2D0427885614268D4
:1009CE00F130425C2F0D4251EDF0424A07BA4244DB
:1009DE00A4A54243D59B424838A0424DB6C84253C7
:1009EE00DA59425A7CFA42619958426944944271EA
:1009FE00AADD427B0AF04282D6EE4288F137428F60
:100A0E00FEF44298304B42A1BE6042ACEEF542BAC3
:100A1E0017F442C9A97E42D3537C3E98B67A405E03
:100A2E00F6E54114578E4189C6E741D7F8EE4219D3
:100A3E0027A9424B3CCD42807C07429C56EE42B7E2
:100A4E00DD2142D02A6442D48A2C42AFA5ED4273F6
:100A5E00858D41D81CE9C1550A13C2710407C2E540
:100A6E00370DC331E400C37C4D99C3AA43D5C3DE11
:100A7E00CC41C40EB7DEC4340E93C4609186C48AD2
:100A8E00D4D0C4AA89CAC4D08908C4E8571DC0DD11
:100A9E00C28FC0BCCCCDC09851ECC020A3D7BFC371
:100AAE00D70A00000000401851EC40C6147B416983
:100ABE0070A441A3D70A41C8000041E5C28F420984
:100ACE000A3D4218A3D742250A3D4234E14842412D
:100ADE00000042548F5C4204120441EA1A7441D25F
:100AEE0005C441B1DE3E41A321F2419B69CE41973F
:100AFE00E1164193699E418EDB77418EDD45418D36
:100B0E00A77D418C5E94418950A0418548B4417EB9
:100B1E003D6341755066416DCE994164928A428A19
:100B2E0063E4422B6E0D41C8324440C357283FA5A3
:100B3E0017F8BE780A07000000003F9A554A408E0B
:100B4E00DA88408B78FE40F4244A41370AF041B0EF
:100B5E00EC9D421DFB5C4289B3B542B7D0EE42E13B
:100B6E00EF3B430D0AD8C0A0A3D7C08EB852C062C7
:100B7E008F5CC03D70A4C00147AEBF91EB850000F5
:100B8E0000003F9AE14840647AE140BC7AE140FCC3
:100B9E007AE14124A3D74152147B4185999A41AC05
:100BAE00F5C341CE147B41EE28F642093D71424C0D
:100BBE00BEDF4234F974421804DF420FD52F4200D3
:100BCE007EF441E8935F41D64A6341C901E841B9D9
:100BDE00B1E441ABD9A4419FDAAF4195F06E418D9E
:100BEE0066EF4186AF5141826638417B0212416FFA
:100BFE00FDC741656B6D42B7ED824278329341EE8F
:100C0E0064FE41AED98B4122ED3D405E2CFC3EC2CE
:100C1E004CE600000000400E9F57410B5288418C5D
:100C2E009C1541DAF42A4218D63542448F3A42676F
:100C3E009199428E1DAD42B1618C42D88F2F41F1F8
:100C4E00ECE1422AB6C4426036B5428D4F3542AD14
:100C5E0053B442CFE1E742F299BA430A502B431AFA
:100C6E00FC0E432B51B2433B5243434AFEEA435AD6
:100C7E0058D043696118437818E7438340AF438ADD
:100C8E004DCD4391345D4394BA5B4015B1B44018D9
:100C9E00D541401BC362401E76144020EB744023A6
:100CAE002C7B40255AB8402797014029DEFA402C6C
:100CBE0032F5402E93464031004540337A4E403651
:100CCE0001BD403896F6403B3A5C403DEC59404001
:100CDE00AD574042CFB9C3736167C374DD7BC37632
:100CEE00D220C3792F95C37BE6E9C37EF4CCC381B2
:100CFE003FDBC3835E2CC385D52DC388A6C8C38BAB
:100D0E00D4F4C38F61BBC3934F3BC3979FA2C39CC5
:100D1E005534C3A17249C3A6F94EC3ACECC8C3B1D6
:100D2E00BFBE4242E501427E98B6429A483742A47F
:100D3E0042A24094B150409582934095709C40944D
:100D4E00CE78C3685FBEC3699EFCC36972C5C367B4
:100D5E00F0C542C2E50142FE98B6431A4837432415
:100D6E0042A24014B150401582934015709C40141D
:100D7E00CE78C3685FBEC3699EFCC36972C5C36784
:100D8E00F0C541ECCCCD4247999A3BBCAF483BCE27
:100D9E007543BAE113ACBC89B4EA41DE66664247DC
:100DAE00999A3BB97BB73BCD6EB3BADD392CBC9269
:100DBE00B3974247999A00000000000000004207D6
:100DCE003333424800003D249FBD3D2821F3BB83B1
:100DDE006DDEBCF4BD0C41F1999A424800003CD83E
:100DEE008D603CE000BCBB297D3CBCEA5EE441E08A
:100DFE00CCCD424800003D7589D53D7EED46BBC445
:100E0E006AFEBD8B40A64206999A424800003D52AA
:100E1E0038613D571A49BBA7E232BD29615841C519
:100E2E00333342433333424800003D2270883D2A1B
:100E3E00BBE63D2F2EC2BB7B86F4BD5CC151BDD23D
:100E4E006D1241F000004247999A3C26B7FB3C3A9E
:100E5E005F77BB46E887BD2252704234000042479E
:100E6E00999A3D57C0173D5E49A600000000BD8609
:100E7E00025C41F000004247999A3D2304D23D3076
:0A0E8E00762500000000BDC49EBDE3
:101EC9005C003C0088016C0268035804E405F807CB
:101ED90024081409400A9C0B740C4C0D300D605CED
:101EE900002000D401C002B803DC0540065C077479
:101EF900087809B40AE40BBC0C980D400D705C001D
:101F0900040120021403080460059C06C007C408E4
:101F1900DC0A280B2C0C040CE40D500D805600A48F
:101F29000D900DA80DC00DCC0DE40DFC0E140E2C5A
:101F39000E500E680E8056008E0D980DB00DC40D12
:101F4900D40DEC0E040E1C0E380E580E700E885669
:101F590000700DA00DB80DC80DDC0DF40E0C0E248B
:081F69000E440E600E780E908C
:1023D5009000BA7408F07597401222A09000EC1294
:1023E5001404000000117F401224B77F017E001203
:1023F5002472D2B2D2B39000EC12140400FFFFFF96
:052405007FE80224B78E
:101DE7009000EBEEF0A3EFF0122496900086E0FC53
:101DF700A3E0FDA3E0FEA3E0FFEC1211AFE4FBFAC2
:101E07007980784B121099E4FBFA79F87842120F2F
:101E1700909000601213F890005CA3E0FDA3A3E488
:101E2700FFFEED5480FDE4FCFBFA7980F8C3121342
:101E370080701A900060E0FCA3E0FDA3E0FEA3E041
:101E4700FFE478BF120F909000601213F890008A99
:101E5700E0FCA3E0FDA3E0FEA3E0FFEC1211AFE47A
:101E6700FBFA7980784B1210997B8C7A6579FA782E
:101E77003D120F907BB67AF3797D783C120E9F90D6
:101E870000641213F81214B290006CE0FCA3E0FD9A
:101E9700A3E0FEA3E0FF121B109000EBE0FCA3E021
:101EA700FDEC1211B490006CE0F8A3E0F9A3E0FA9E
:101EB700A3E0FB1211367E00600540037F02227FFC
:021EC7000322F4
:102496007F0E12221C90005C1213F87F1612221C6B
:1024A6009000861213F87F1812221C90008A0213DD
:0124B600F82D
:051814009000F3EFF06D
:10181900E024F6F0E0FFC3940B7480948040030247
:101829001960EF25E024A4F582E43400F583E0FE95
:10183900A3E0AA06F990010274FFF0A3EAF0A3E974
:10184900F0E49000F8F09000F8E0C39402748094FA
:10185900805037E0FFA3F0900102E0FBA3E0FAA378
:10186900E0F975F004EFA4F58285F0831213BC90BA
:101879000058E0F8A3E0F9A3E0FAA3E0FB1211365F
:1018890040089000F8E004F080BC9000F3E025E007
:10189900248EF582E43400F583E0FEA3E0AA06F97C
:1018A90090010274FFF0A3EAF0A3E9F0900102E0CD
:1018B900FBA3E0FAA3E0F99000F9E075F004A4F5C0
:1018C9008285F0831213BC9000FA1213F89000F38A
:1018D900E025E02470F582E43400F583E0FEA3E01E
:1018E900AA06F990010274FFF0A3EAF0A3E9F090C7
:1018F9000102E0FBA3E0FAA3E0F99000F9E075F03A
:1019090004A4F58285F0831213BC9000FE1213F82B
:101919009000FAE0FCA3E0FDA3E0FEA3E0FF900045
:1019290058E0F8A3E0F9A3E0FAA3E0FB120F9090C6
:1019390000F4E0F8A3E0F9A3E0FAA3E0FB120E9F9C
:101949009000FEE0F8A3E0F9A3E0FAA3E0FB120E91
:101959009F9000F41213F89000F3E0FFC3940E7403
:101969008094804003021B01EF25E0243CF582E4CA
:101979003400F583E0FEA3E0AA06F990010274FFA2
:10198900F0A3EAF0A3E9F0E49000F8F09000F3E0A6
:1019990090007A93FF3395E0FE9000F8E0D39FEE34
:1019A9006480F87480985037E0FFA3F0900102E05A
:1019B900FBA3E0FAA3E0F975F004EFA4F58285F042
:1019C900831213BC9000F4E0F8A3E0F9A3E0FAA3B2
:1019D900E0FB12113640089000F8E004F080AD9069
:1019E90000F3E0FF90007A93FD3395E0FC9000F856
:1019F900E0D39DEC6480F87480984040EF25E024A2
:101A09003CF582E43400F583E0FEA3E0AA06F990F0
:101A1900010274FFF0A3EAF0A3E9F0900102E0FBF0
:101A2900A3E0FAA3E0F99000F9E075F004A4F582C7
:101A390085F0831213BC9000F41213F89000F3E0C0
:101A490025E02420F582E43400F583E0FEA3E0AA32
:101A590006F990010274FFF0A3EAF0A3E9F09001FE
:101A690002E0FBA3E0FAA3E0F99000F9E075F004C5
:101A7900A4F58285F0831213BC9000FA1213F89032
:101A890000F3E025E02404F582E43400F583E0FE68
:101A9900A3E0AA06F990010274FFF0A3EAF0A3E912
:101AA900F0900102E0FBA3E0FAA3E0F99000F9E06D
:101AB90075F004A4F58285F0831213BC9000FE1220
:101AC90013F89000F4E0FCA3E0FDA3E0FEA3E0FF1F
:101AD9009000FAE0F8A3E0F9A3E0FAA3E0FB120F03
:101AE900909000FEE0F8A3E0F9A3E0FAA3E0FB126E
:101AF9000E9F9000F41213F89000F4E0FCA3E0FDAF
:061B0900A3E0FEA3E0FFD3
:011B0F0022B3
:1014B200E4FFFE7DA87C41900064E0F8A3E0F9A37C
:1014C200E0FAA3E0FB120F90A804A905AA06AB0755
:1014D2007FBC7E167D997CC1120E9B7BF27A30799D
:1014E2008278361210997BA07A0B7906784A120E0E
:1014F2009F12204B7BB87A3E79B978C4120E9F9026
:1015020000581213F87FCD7ECC7D8B7C4290005820
:10151200E0F8A3E0F9A3E0FAA3E0FB1211366002BF
:10152200501AE4FFFE7DC87CC1900058E0F8A3E0A9
:10153200F9A3E0FAA3E0FB121136500A9000581208
:10154200140441C80000E49000EDF09000EDE0C307
:1015520094017480948040030218139000BAE0FF53
:101562009000EEF0C3940A74809480400302166ED9
:10157200EF64016005EF640670087BAA7A3079D6C1
:1015820080529000EEE0640370087BAA7A307956AC
:1015920080429000EEE0FF64026005EF6404700890
:1015A2007BA97AC579CD802C9000EEE064057008A5
:1015B2007B8C7A8B79DB801C9000EEE064077008EC
:1015C200FBFA79A07841801E9000EEE06408700872
:1015D200FBFA79967842800E9000EEE06409701D65
:1015E200FBFA79C87842900060E0FCA3E0FDA3E03A
:1015F200FEA3E0FF1210999000EF1213F89000EF93
:10160200E0FCA3E0FDA3E0FEA3E0FFE4FBFA799691
:101612007842120F909000EF1213F89000EEE0D390
:1016220094027480948040030217E0E4FFFE7DA0E0
:101632007C3FA3E0F8A3E0F9A3E0FAA3E0FB120FDA
:1016420090E4FBFA798078C0120E9F9000EF12139B
:10165200F89000EFE0FCA3E0FDA3E0FEA3E0FFE4CE
:10166200FBFA79807840120E9F0217DA9000EEE0C2
:10167200FFC3941574809480501EC007900060E0F0
:10168200FCA3E0FDA3E0FEA3E0FF9000F41213F838
:10169200D0071218140217DA9000EEE0C3941874FF
:1016A20080948040030217E07FCB7EF47DFF7C3F75
:1016B200900068E0F8A3E0F9A3E0FAA3E0FB120FC0
:1016C20090A804A905AA06AB07E4FFFE7D9B7C4413
:1016D200120E9BC004C005C006C007900068E0F867
:1016E200A3E0F9A3E0FAA3E0FB900060E0FCA3E032
:1016F200FDA3E0FEA3E0FF120E9BD003D002D001B7
:10170200D000120F90C004C005C006C00790006050
:10171200E0F8A3E0F9A3E0FAA3E0FBE4FFFE7D9B7F
:101722007C44120E9BA804A905AA06AB07D007D0D9
:1017320006D005D004121099C004C005C006C00727
:101742007F967EE97D7F7C3F900068E0F8A3E0F918
:10175200A3E0FAA3E0FB120F90A804A905AA06AB26
:1017620007D007D006D005D004120E9B9000EF12CE
:1017720013F8900068E0F8A3E0F9A3E0FAA3E0FB15
:10178200E4FFFE7D9B7C44120E9BC004C005C00694
:10179200C0077F9E7E497D737C459000EFE0F8A3F1
:1017A200E0F9A3E0FAA3E0FB120F90D003D002D03D
:1017B20001D0001210999000EF1213F89000EFE0A0
:1017C200FCA3E0FDA3E0FEA3E0FF9000F41213F8F7
:1017D2009000EEE0FF1218149000EF1213F87FFF52
:1017E2007E217D0C7C419000EFE0F8A3E0F9A3E0BC
:1017F200FAA3E0FB120F907BB47A18799478C312A3
:101802000E9F90006C1213F89000EDE004F00215A8
:011812004D88
:0118130022B2
:10240A009000ECE0FCA3E0FDA3E0FEA3E0FF1213C2
:01241A00962B
:10241B00E4FEEEC39408748094805015C293EF30A1
:10242B00E704D2918002C291D293EF25E0FF0E8098
:03243B00E1C29368
:01243E00227B
:10243F00E4FEEEFDC39408748094805023ED64078E
:10244F007004C2918002D291C293EF25E0FFD29324
:10245F003092054401FF8004EF54FEFF000E80D23E
:02246F00C29316
:012471002248
:1024B700C29012241B781012240A780812240A905A
:0D24C70000ECA3A3A3E0FF12241BD290227F
:10221C00C29012241B12243FE4FCFDFE7810121312
:10222C00A99000ED1213F89000EDE0F8A3E0F9A3EB
:10223C00E0FAA3E0FBC000C001C002C00312243FBF
:10224C00E4FCFDFE78081213A9D003D002D001D013
:10225C0000EB4FFFEA4EFEE94DFDE84CFC9000ED23
:10226C001213F89000EDE0F8A3E0F9A3E0FAA3E074
:10227C00FB12243FEB4FFFEAFEE9FDE8FC9000ED7A
:10228C001213F8D2909000EDE0FCA3E0FDA3E0FE69
:03229C00A3E0FFBD
:01229F00221C
:1022A0009000EC12140400FFFFFF7F801224B77F20
:1022B000017E001224729000EC12140400FFFFFE55
:1022C0007FFF1224B77F017E001224729000EC126F
:1022D0001404000000117F401224B77F017E001219
:1022E00024729000EC12140400FFFFFF7FE8122418
:1022F000B77F017E001224729000EC1214040000DB
:0E23000001387F4A1224B77F027E0002247249
:0400060075A0FF22C0
:09259000D2A0D2A1C2A2C2A32272
:09259900C2A0C2A1D2A2D2A32269
:101F71004E00D37E306D79335B5F707F7B018000D3
:091F81006F4100E5014100E6009A
:10253400759850E4F587F58E758DFD758BFDD28EFB
:012544002274
:1024D4001225A29000CFEFF07E00121F907FFA1217
:0D24E40024F19000CFE0FF7E00F460E422C0
:041F9000AB07AA06EB
:101F94009000EB740CF0A3F0A3F0A3F0A3F07C008A
:101FA4007D6412126EA3EFF07C007D64AF03AE0279
:101FB40012126EAA04AB057C007D0AAF03AE0212B6
:101FC400126EA3EFF07C007D0AAF03AE0212126E14
:101FD400AA04AB05A3EBF0E4A3F09000F3E0C394F0
:101FE4000874809480502BE0FF24EBF582E43400E5
:101FF400F583E024D3F582E43400F583E0FE74EB4A
:102004002FF582E43400F583EEF09000F3E004F061
:1020140080C8E49000F3F09000F3E0C39408748067
:102024009480501EE0FEC374979EFF74EB2EF582DD
:10203400E43400F583E0FD1225459000F3E004F05C
:0220440080D545
:012046002277
:061B10009000ED1213F835
:101B1600E4FFFEFDFC9000EDE0F8A3E0F9A3E0FA97
:101B2600A3E0FB1211365026E4FFFE7D807CBF90B9
:101B360000EDE0F8A3E0F9A3E0FAA3E0FB120F90B2
:101B46009000F11213F89000F57401F080179000E0
:101B5600EDE0FCA3E0FDA3E0FEA3E0FFA31213F873
:101B6600E49000F5F0E4FFFE7D7A7C449000F1E01D
:101B7600F8A3E0F9A3E0FAA3E0FB121136401090B7
:101B860000F1E0FCA3E0FDA3E0FEA3E0FF806CE42F
:101B9600FFFE7DC87C429000F1E0F8A3E0F9A3E0E7
:101BA600FAA3E0FB121136401AE4FFFE7D207C41C9
:101BB6009000F1E0F8A3E0F9A3E0FAA3E0FB120F2E
:101BC600908038E4FFFE7D207C419000F1E0F8A390
:101BD600E0F9A3E0FAA3E0FB121136E4FFFE4006AB
:101BE6007DC87C4280047D7A7C449000F1E0F8A3B5
:101BF600E0F9A3E0FAA3E0FB120F901211ED9000BA
:101C0600F61213F89000F5E09000FD7005740CF0E4
:101C16008003740AF0E47BE87A03F9F89000F6E0B2
:101C2600FCA3E0FDA3E0FEA3E0FF1212E0E47B0AC2
:101C3600FAF9F81212E09000FEEBF09000F6E0FCE4
:101C4600A3E0FDA3E0FEA3E0FFE47BE87A03F9F856
:101C56001212E0AC00AD01AE02AF039000F6121313
:101C6600F8E47B64FAF9F89000F6E0FCA3E0FDA343
:101C7600E0FEA3E0FF1212E09000FFEFF09000F606
:101C8600E0FCA3E0FDA3E0FEA3E0FFE47B64FAF939
:101C9600F81212E0AC00AD01AE02AF039000F612EE
:101CA60013F8E47B0AFAF9F89000F6E0FCA3E0FDED
:101CB600A3E0FEA3E0FF1212E0900100EFF0900017
:101CC600F6E0FCA3E0FDA3E0FEA3E0FFE47B0AFA56
:101CD600F9F81212E0AC00AD01AE02AF039000F6C7
:101CE6001213F89000F6A3A3A3E0900101F0E4A379
:101CF600F0900102E0FFC394037480948050147442
:101D0600FA2FF582E43400F583E4F0900102E00452
:101D1600F080DE9001027403F0900102E0C39408A3
:101D260074809480502BE0FF24FAF582E43400F5A9
:101D360083E024D3F582E43400F583E0FE74FA2FC1
:101D4600F582E43400F583EEF0900102E004F080C1
:101D5600C8E4FFFE7D207C419000F1E0F8A3E0F9A5
:101D6600A3E0FAA3E0FB12113650059000FE803C7A
:101D7600E4FFFE7DC87C429000F1E0F8A3E0F9A301
:101D8600E0FAA3E0FB12113650059000FF801DE437
:101D9600FFFE7D7A7C449000F1E0F8A3E0F9A3E031
:101DA600FAA3E0FB1211365007900100E04480F0E0
:101DB600E4900102F0900102E0C3940874809480DC
:101DC600501EE0FEC3749A9EFF74FA2EF582E43428
:101DD60000F583E0FD122545900102E004F080D570
:011DE60022DA
:10254500900103EDF0122353900103E0FF022353A2
:0825A2007F151223530223965A
:05235300900104EFF011
:10235800C296122555E4900105F0900105E0C3945A
:1023680008748094805024900104E030E704D294EB
:102378008002C294D297122565C2971225659001F2
:0D23880004E025E0F0A3E004F080CFC29453
:012395002225
:10239600D294122555E49000EBF09000EBE0C39444
:1023A60008748094805020D2971225659000ECE046
:1023B60025E0F0309404E04401F0C29712256590C0
:0E23C60000EBE004F080D3C2949000ECE0FF46
:0123D40022E6
:051F8A0042010C000003
:0F25750075A883758921758CD8758AF0D28C2250
:03000B0002230EBF
:10230E00C0E0C083C082758CD8758AF0900107E05A
:10231E0004F07006900106E004F090010BE004F06A
:10232E00700690010AE004F0900109E004F07006D6
:10233E00900108E004F090010EE4F0A304F0D082C6
:05234E00D083D0E03255
:0300030002250AC9
:10250A00C0E0C083C08290010CE4F0A304F0D08242
:05251A00D083D0E03287
:1024F100E4FEEEC39F5011E4FDFC0DBD00010CBCD8
:0825010001F8BD63F50E80EA4C
:0125090022AF
:0F255500E4FFEFC394307480948050030F80F341
:012564002254
:0F256500E4FFEFC394087480948050030F80F359
:012574002244
:10251F00E4900106F0A3F0C3900107E09F9001063D
:05252F00E09E40F322D4
:10247200E4FDFCC3ED9FEC9E5019E4FBFA00000062
:10248200000BBB00010ABA01F4BB4FF10DBD000104
:032492000C80E0DB
:012495002224
:1020F300E49000E7F0A3F0A3F0A3F012258490018D
:102103000EE07004A3E0640170F490010EF0A3F0FC
:102113009000E7E0FEA3E0FFEE7050EF146025149B
:102123006037146039240370421224D49000E9EE1E
:10213300F0A3EFF09000E8E004F070369000E7E0E1
:1021430004F0802E9000E9E0FEA3E0FF121DE7906B
:1021530000E7EEF0A3EFF08019122590800312251B
:10216300999000E7E4F0A304F08007E49000E7F01F
:10217300A3F090010CE07004A3E06401708090016F
:0D2183000CF0A3F09000E7F0A3F0022101A2
:0C2584001223D512257512253402000622
:100E9800021259E86480F8E933E83360110460F01D
:100EA800ED33EC337009E8FCE9FDEAFEEBFF2204C0
:100EB80060DED3EB9FEA9EE99DE8C2E78CF0C2F7BB
:100EC80095F0400CE8CCF8E9CDF9EACEFAEBCFFB87
:100ED80012122485D0F05804700320D5B3E80470AA
:100EE800075002B2D502126392D5EC0460F7E4CC45
:100EF800C0E0C398F8603B94186008400DD0E0FB50
:100F080002123BE4FBFAC9FC8028E830E406E4C995
:100F1800FBE4CAFCE830E305E4C9CACBFCE85407A3
:100F28006010F8C3E913F9EA13FAEB13FBEC13FCAE
:100F3800D8F130F52FC3E49CFCEF9BFFEE9AFEED51
:100F480099FDD0E0FBEF4E4D4C701222DB030212EC
:100F580060EC2CFCEF33FFEE33FEED33FDED30E7B4
:100F6800EB02123BEF2BFFEE3AFEED39FDD0E0FB32
:100F780050130BBB0003021263ED13FDEE13FEEFDB
:080F880013FFEC13FC02123B05
:100F9000EC4D6011E8497017ED33EC3304600DE45B
:100FA000FCFFFEFD22E933E8330470F80212591207
:100FB000122458046009E4CC248150062850090208
:100FC0001263284003021260C0E0EB4A7044B9800B
:100FD00006D0E0FB02124FEF4E701CBD8008EBFF05
:100FE000EAFEE9FD80EBE98DF0A4FEE5F002107960
:100FF000E9CDF9EAFEEBFFEF89F0A4FCE5F0CE893C
:10100000F0A42EFFE435F0CD89F0A42DFEE435F0F8
:101010008067EF4E7005BD80D780C3EF8BF0A4AC26
:10102000F0EE8BF0A42CFCE435F0F8EF8AF0A42C61
:10103000E5F038FCE433CB8DF0A42CFCE5F03BF874
:10104000EE8AF0A42CFCE5F038F8E433CF89F0A464
:101050002CFCE5F038CF3400CE89F0A42FFFE5F06A
:101060003EFEE433C98DF0A42EFEE5F039CD8AF0C2
:10107000A42FFFE5F03EFEE43DFD33D0E0FB50073A
:101080000BBB000F021263EC2CFCEF33FFEE33FEC0
:06109000ED33FD02123BEE
:10109600021263EC5D046005E859047003021259FC
:1010A600121224580460F6EC4860F2EC7004FDFE5F
:1010B600FF22C860DB2481C85009C398600250062D
:1010C6000212609850CAF582E9294B4A7005AB8234
:1010D60002124F75F0007C1A7880C3EF9BEE9AEDF2
:1010E60099400DC3EF9BFFEE9AFEED99FDE842F0A5
:1010F600DC23ACF0D0E0FFD0E0FED0E0FDAB8220F8
:10110600E7101BEB60BAEC2CFCEF33FFEE33FEED81
:1011160033FD02123BE803F830E705C0F075F00036
:10112600EF2FFFEE33FEED33FD40B830E7C280AA65
:1011360074F8CC6480CCC86480C8F58204604FC360
:10114600EB9FF5F0EA9E42F0E99D42F0E89C45F0FF
:10115600603C501DE5825FFFE582D313CB5BCBF489
:101166002B5582FB50280ABA002409B900200880B2
:101176001DE5825BFBE582D313CF5FCFF4C3132F4C
:101186005582FF50090EBE00050DBD00010CC3EBD4
:101196009FF5F0EA9E42F0E99D42F0E89C45F0603A
:0911A60007CC4820E701B3EC225C
:1011AF0075F020800E75F010800575F0087D007EBB
:1011BF00007F003392D530D503121372EC334010F9
:1011CF00EF33FFEE33FEED33FDEC33FCD5F0ED22C4
:0E11DF00E5F0247EA2D513CC92E7CDCEFF2200
:1011ED00EDD2E7CD33EC3392D524814006E4FFFEFA
:1011FD00FDFC22FCE4CFCECDCC24E0501174FF8059
:10120D00EDC3CC13CCCD13CDCE13CECF13CF0470F5
:07121D00F030D5DE02137270
:1020470002125922EDA2E7D2E7F9EC3340F260F32E
:10205700B4FF08ED547F70E8021263F82481C2E0F0
:10206700C0E0F40428FAC313FCED92E7FD9000F3F7
:102077001213F8EEA2E7E9BA7F02C3133400940003
:10208700FA75F091A4E5F013F494FE8AF0A433E511
:10209700F033248CD313FDE492E7FE7F007C3F7579
:1020A7008302ECC0E0F8EDC0E0F9EEC0E0FAEFC063
:1020B700E0FB8583F09000F31213EC85F083121098
:1020C70099D0E0FBD0E0FAD0E0F9D0E0F8120E9F0B
:1020D700ED6480FD30E7011CD583C7ED33CC33F8C1
:0C20E700D0E0A2E71328C313CC13FD22A5
:10122400E9D2E7C933E833F892D5EDD2E7CD33EC10
:0712340033FC5002B2D52289
:10123B00EC30E7100FBF000C0EBE00080DBD000414
:10124B000BEB6014A2D5EB13FCED92E7FD2274FFC0
:10125B00FCFDFEFF22E480F8A2D574FF13FC7D8019
:03126B00E480EF2D
:10219C000220F3E493A3F8E493A34003F68001F246
:1021AC0008DFF48029E493A3F85407240CC8C33344
:1021BC00C4540F4420C8834004F456800146F6DF13
:1021CC00E4800B0102040810204080901EC9E47EBC
:1021DC00019360BCA3FF543F30E509541FFEE49308
:1021EC00A360010ECF54C025E060A840B8E493A3CF
:1021FC00FAE493A3F8E493A3C8C582C8CAC583CAFA
:10220C00F0A3C8C582C8CAC583CADFE9DEE780BEB1
:011F8F000051
:10126E00C2D5EC30E709B2D5E4C39DFDE49CFCEE9B
:10127E0030E715B2D5E4C39FFFE49EFE121435C3CA
:10128E00E49DFDE49CFC800312143530D507C3E4C5
:06129E009FFFE49EFE220A
:1012A40075F008758200EF2FFFEE33FECD33CDCC01
:1012B40033CCC58233C5829BED9AEC99E582984084
:1012C4000CF582EE9BFEED9AFDEC99FC0FD5F0D661
:1012D400E4CEFBE4CDFAE4CCF9A88222B800C1B98B
:1012E4000059BA002DEC8BF084CFCECDFCE5F0CBC9
:1012F400F97818EF2FFFEE33FEED33FDEC33FCEB02
:1013040033FB10D703994004EB99FB0FD8E5E4F9BC
:10131400FA227818EF2FFFEE33FEED33FDEC33FCA9
:10132400C933C910D7059BE99A4007EC9BFCE99A9D
:10133400F90FD8E0E4C9FAE4CCFB2275F010EF2FE2
:10134400FFEE33FEED33FDCC33CCC833C810D707E2
:101354009BEC9AE899400AED9BFDEC9AFCE899F81D
:0E1364000FD5F0DAE4CDFBE4CCFAE4C8F922B0
:0E137200C3E49FFFE49EFEE49DFDE49CFC228C
:10138000EB9FF5F0EA9E42F0E99D42F0EC6480C8E4
:0613900064809845F02284
:10139600E8600FECC313FCED13FDEE13FEEF13FF35
:0313A600D8F12259
:1013A900E8600FEFC333FFEE33FEED33FDEC33FCA2
:0313B900D8F12246
:1013BC00BB010DE58229F582E5833AF5830213EC36
:1013CC005007E92582F802148ABBFE07E92582F84A
:1013DC00021496E58229F582E5833AF5830214A27C
:0C13EC00E0FCA3E0FDA3E0FEA3E0FF2274
:0C13F800ECF0A3EDF0A3EEF0A3EFF02268
:10140400A8828583F0D083D08212141B12141B127D
:10141400141B12141BE473E493A3C583C5F0C583A2
:10142400C8C582C8F0A3C583C5F0C583C8C582C832
:011434002295
:10143500BC000BBE0029EF8DF084FFADF022E4CC9B
:10144500F875F008EF2FFFEE33FEEC33FCEE9DEC64
:10145500984005FCEE9DFE0FD5F0E9E4CEFD22EDAA
:10146500F8F5F0EE8420D21CFEADF075F008EF2FF4
:10147500FFED33FD4007985006D5F0F222C398FDE5
:051485000FD5F0EA2282
:0C148A00E6FC08E6FD08E6FE08E6FF228E
:0C149600E2FC08E2FD08E2FE08E2FF2292
:1014A200E493FC740193FD740293FE740393FF2290
:00000001FF
